{
  "_format": "hh-sol-artifact-1",
  "contractName": "ETHStaking",
  "sourceName": "contracts/Staking.sol",
  "abi": [
    {
      "inputs": [],
      "stateMutability": "nonpayable",
      "type": "constructor"
    },
    {
      "inputs": [
        {
          "internalType": "address",
          "name": "owner",
          "type": "address"
        }
      ],
      "name": "OwnableInvalidOwner",
      "type": "error"
    },
    {
      "inputs": [
        {
          "internalType": "address",
          "name": "account",
          "type": "address"
        }
      ],
      "name": "OwnableUnauthorizedAccount",
      "type": "error"
    },
    {
      "anonymous": false,
      "inputs": [
        {
          "indexed": true,
          "internalType": "address",
          "name": "previousOwner",
          "type": "address"
        },
        {
          "indexed": true,
          "internalType": "address",
          "name": "newOwner",
          "type": "address"
        }
      ],
      "name": "OwnershipTransferred",
      "type": "event"
    },
    {
      "anonymous": false,
      "inputs": [
        {
          "indexed": true,
          "internalType": "address",
          "name": "user",
          "type": "address"
        },
        {
          "indexed": false,
          "internalType": "uint256",
          "name": "amount",
          "type": "uint256"
        },
        {
          "indexed": false,
          "internalType": "uint256",
          "name": "timestamp",
          "type": "uint256"
        }
      ],
      "name": "Staked",
      "type": "event"
    },
    {
      "anonymous": false,
      "inputs": [
        {
          "indexed": true,
          "internalType": "address",
          "name": "user",
          "type": "address"
        },
        {
          "indexed": false,
          "internalType": "uint256",
          "name": "stakedAmount",
          "type": "uint256"
        },
        {
          "indexed": false,
          "internalType": "uint256",
          "name": "reward",
          "type": "uint256"
        },
        {
          "indexed": false,
          "internalType": "uint256",
          "name": "timestamp",
          "type": "uint256"
        }
      ],
      "name": "Withdrawn",
      "type": "event"
    },
    {
      "inputs": [
        {
          "internalType": "address",
          "name": "user",
          "type": "address"
        }
      ],
      "name": "calculateReward",
      "outputs": [
        {
          "internalType": "uint256",
          "name": "reward",
          "type": "uint256"
        },
        {
          "internalType": "uint256",
          "name": "total",
          "type": "uint256"
        }
      ],
      "stateMutability": "view",
      "type": "function"
    },
    {
      "inputs": [
        {
          "internalType": "address",
          "name": "user",
          "type": "address"
        }
      ],
      "name": "getStakingInfo",
      "outputs": [
        {
          "components": [
            {
              "internalType": "uint256",
              "name": "stakedAmount",
              "type": "uint256"
            },
            {
              "internalType": "uint256",
              "name": "rewardAmount",
              "type": "uint256"
            },
            {
              "internalType": "uint256",
              "name": "totalAmount",
              "type": "uint256"
            }
          ],
          "internalType": "struct ETHStaking.StakeInfoDTO",
          "name": "",
          "type": "tuple"
        }
      ],
      "stateMutability": "view",
      "type": "function"
    },
    {
      "inputs": [],
      "name": "owner",
      "outputs": [
        {
          "internalType": "address",
          "name": "",
          "type": "address"
        }
      ],
      "stateMutability": "view",
      "type": "function"
    },
    {
      "inputs": [],
      "name": "renounceOwnership",
      "outputs": [],
      "stateMutability": "nonpayable",
      "type": "function"
    },
    {
      "inputs": [],
      "name": "rescueETH",
      "outputs": [],
      "stateMutability": "nonpayable",
      "type": "function"
    },
    {
      "inputs": [],
      "name": "stake",
      "outputs": [],
      "stateMutability": "payable",
      "type": "function"
    },
    {
      "inputs": [
        {
          "internalType": "address",
          "name": "",
          "type": "address"
        }
      ],
      "name": "stakes",
      "outputs": [
        {
          "internalType": "bool",
          "name": "exists",
          "type": "bool"
        },
        {
          "internalType": "uint256",
          "name": "amount",
          "type": "uint256"
        },
        {
          "internalType": "uint256",
          "name": "startTime",
          "type": "uint256"
        }
      ],
      "stateMutability": "view",
      "type": "function"
    },
    {
      "inputs": [
        {
          "internalType": "address",
          "name": "newOwner",
          "type": "address"
        }
      ],
      "name": "transferOwnership",
      "outputs": [],
      "stateMutability": "nonpayable",
      "type": "function"
    },
    {
      "inputs": [],
      "name": "withdraw",
      "outputs": [],
      "stateMutability": "nonpayable",
      "type": "function"
    }
  ],
  "bytecode": "0x608060405234801561001057600080fd5b5033600073ffffffffffffffffffffffffffffffffffffffff168173ffffffffffffffffffffffffffffffffffffffff16036100845760006040517f1e4fbdf700000000000000000000000000000000000000000000000000000000815260040161007b919061019e565b60405180910390fd5b6100938161009960201b60201c565b506101b9565b60008060009054906101000a900473ffffffffffffffffffffffffffffffffffffffff169050816000806101000a81548173ffffffffffffffffffffffffffffffffffffffff021916908373ffffffffffffffffffffffffffffffffffffffff1602179055508173ffffffffffffffffffffffffffffffffffffffff168173ffffffffffffffffffffffffffffffffffffffff167f8be0079c531659141344cd1fd0a4f28419497f9722a3daafe3b4186f6b6457e060405160405180910390a35050565b600073ffffffffffffffffffffffffffffffffffffffff82169050919050565b60006101888261015d565b9050919050565b6101988161017d565b82525050565b60006020820190506101b3600083018461018f565b92915050565b610f44806101c86000396000f3fe6080604052600436106100865760003560e01c8063715018a611610059578063715018a6146101025780638da5cb5b14610119578063aa4704f314610144578063d82e396214610181578063f2fde38b146101bf57610086565b806316934fc41461008b57806320800a00146100ca5780633a4b66f1146100e15780633ccfd60b146100eb575b600080fd5b34801561009757600080fd5b506100b260048036038101906100ad9190610aac565b6101e8565b6040516100c193929190610b0d565b60405180910390f35b3480156100d657600080fd5b506100df61021f565b005b6100e9610277565b005b3480156100f757600080fd5b5061010061043f565b005b34801561010e57600080fd5b50610117610657565b005b34801561012557600080fd5b5061012e61066b565b60405161013b9190610b53565b60405180910390f35b34801561015057600080fd5b5061016b60048036038101906101669190610aac565b610694565b6040516101789190610bbf565b60405180910390f35b34801561018d57600080fd5b506101a860048036038101906101a39190610aac565b610752565b6040516101b6929190610bda565b60405180910390f35b3480156101cb57600080fd5b506101e660048036038101906101e19190610aac565b61084f565b005b60016020528060005260406000206000915090508060000160009054906101000a900460ff16908060010154908060020154905083565b6102276108d5565b61022f61066b565b73ffffffffffffffffffffffffffffffffffffffff166108fc479081150290604051600060405180830381858888f19350505050158015610274573d6000803e3d6000fd5b50565b600034116102ba576040517f08c379a00000000000000000000000000000000000000000000000000000000081526004016102b190610c60565b60405180910390fd5b6000600160003373ffffffffffffffffffffffffffffffffffffffff1673ffffffffffffffffffffffffffffffffffffffff16815260200190815260200160002090508060000160009054906101000a900460ff161561035757600061031f33610752565b509050803461032e9190610caf565b8260010160008282546103419190610caf565b92505081905550428260020181905550506103ec565b604051806060016040528060011515815260200134815260200142815250600160003373ffffffffffffffffffffffffffffffffffffffff1673ffffffffffffffffffffffffffffffffffffffff16815260200190815260200160002060008201518160000160006101000a81548160ff02191690831515021790555060208201518160010155604082015181600201559050505b3373ffffffffffffffffffffffffffffffffffffffff167f1449c6dd7851abc30abf37f57715f492010519147cc2652fbc38202c18a6ee903442604051610434929190610bda565b60405180910390a250565b6000600160003373ffffffffffffffffffffffffffffffffffffffff1673ffffffffffffffffffffffffffffffffffffffff16815260200190815260200160002090508060000160009054906101000a900460ff166104d3576040517f08c379a00000000000000000000000000000000000000000000000000000000081526004016104ca90610d2f565b60405180910390fd5b6000806104df33610752565b91509150600083600101549050600160003373ffffffffffffffffffffffffffffffffffffffff1673ffffffffffffffffffffffffffffffffffffffff168152602001908152602001600020600080820160006101000a81549060ff021916905560018201600090556002820160009055505060003373ffffffffffffffffffffffffffffffffffffffff168360405161057890610d80565b60006040518083038185875af1925050503d80600081146105b5576040519150601f19603f3d011682016040523d82523d6000602084013e6105ba565b606091505b50509050806105fe576040517f08c379a00000000000000000000000000000000000000000000000000000000081526004016105f590610de1565b60405180910390fd5b3373ffffffffffffffffffffffffffffffffffffffff167f75e161b3e824b114fc1a33274bd7091918dd4e639cede50b78b15a4eea956a2183864260405161064893929190610e01565b60405180910390a25050505050565b61065f6108d5565b610669600061095c565b565b60008060009054906101000a900473ffffffffffffffffffffffffffffffffffffffff16905090565b61069c610a28565b6000806106a884610752565b915091506000600160008673ffffffffffffffffffffffffffffffffffffffff1673ffffffffffffffffffffffffffffffffffffffff1681526020019081526020016000206040518060600160405290816000820160009054906101000a900460ff16151515158152602001600182015481526020016002820154815250509050604051806060016040528082602001518152602001848152602001838152509350505050919050565b6000806000600160008573ffffffffffffffffffffffffffffffffffffffff1673ffffffffffffffffffffffffffffffffffffffff1681526020019081526020016000206040518060600160405290816000820160009054906101000a900460ff1615151515815260200160018201548152602001600282015481525050905080600001516107e857600080925092505061084a565b6000620151808260400151426107fe9190610e38565b6108089190610e9b565b90506103e8600582846020015161081f9190610ecc565b6108299190610ecc565b6108339190610e9b565b93508382602001516108459190610caf565b925050505b915091565b6108576108d5565b600073ffffffffffffffffffffffffffffffffffffffff168173ffffffffffffffffffffffffffffffffffffffff16036108c95760006040517f1e4fbdf70000000000000000000000000000000000000000000000000000000081526004016108c09190610b53565b60405180910390fd5b6108d28161095c565b50565b6108dd610a20565b73ffffffffffffffffffffffffffffffffffffffff166108fb61066b565b73ffffffffffffffffffffffffffffffffffffffff161461095a5761091e610a20565b6040517f118cdaa70000000000000000000000000000000000000000000000000000000081526004016109519190610b53565b60405180910390fd5b565b60008060009054906101000a900473ffffffffffffffffffffffffffffffffffffffff169050816000806101000a81548173ffffffffffffffffffffffffffffffffffffffff021916908373ffffffffffffffffffffffffffffffffffffffff1602179055508173ffffffffffffffffffffffffffffffffffffffff168173ffffffffffffffffffffffffffffffffffffffff167f8be0079c531659141344cd1fd0a4f28419497f9722a3daafe3b4186f6b6457e060405160405180910390a35050565b600033905090565b60405180606001604052806000815260200160008152602001600081525090565b600080fd5b600073ffffffffffffffffffffffffffffffffffffffff82169050919050565b6000610a7982610a4e565b9050919050565b610a8981610a6e565b8114610a9457600080fd5b50565b600081359050610aa681610a80565b92915050565b600060208284031215610ac257610ac1610a49565b5b6000610ad084828501610a97565b91505092915050565b60008115159050919050565b610aee81610ad9565b82525050565b6000819050919050565b610b0781610af4565b82525050565b6000606082019050610b226000830186610ae5565b610b2f6020830185610afe565b610b3c6040830184610afe565b949350505050565b610b4d81610a6e565b82525050565b6000602082019050610b686000830184610b44565b92915050565b610b7781610af4565b82525050565b606082016000820151610b936000850182610b6e565b506020820151610ba66020850182610b6e565b506040820151610bb96040850182610b6e565b50505050565b6000606082019050610bd46000830184610b7d565b92915050565b6000604082019050610bef6000830185610afe565b610bfc6020830184610afe565b9392505050565b600082825260208201905092915050565b7f43616e6e6f74207374616b652030204554480000000000000000000000000000600082015250565b6000610c4a601283610c03565b9150610c5582610c14565b602082019050919050565b60006020820190508181036000830152610c7981610c3d565b9050919050565b7f4e487b7100000000000000000000000000000000000000000000000000000000600052601160045260246000fd5b6000610cba82610af4565b9150610cc583610af4565b9250828201905080821115610cdd57610cdc610c80565b5b92915050565b7f4e6f20616374697665207374616b650000000000000000000000000000000000600082015250565b6000610d19600f83610c03565b9150610d2482610ce3565b602082019050919050565b60006020820190508181036000830152610d4881610d0c565b9050919050565b600081905092915050565b50565b6000610d6a600083610d4f565b9150610d7582610d5a565b600082019050919050565b6000610d8b82610d5d565b9150819050919050565b7f455448207472616e73666572206661696c656400000000000000000000000000600082015250565b6000610dcb601383610c03565b9150610dd682610d95565b602082019050919050565b60006020820190508181036000830152610dfa81610dbe565b9050919050565b6000606082019050610e166000830186610afe565b610e236020830185610afe565b610e306040830184610afe565b949350505050565b6000610e4382610af4565b9150610e4e83610af4565b9250828203905081811115610e6657610e65610c80565b5b92915050565b7f4e487b7100000000000000000000000000000000000000000000000000000000600052601260045260246000fd5b6000610ea682610af4565b9150610eb183610af4565b925082610ec157610ec0610e6c565b5b828204905092915050565b6000610ed782610af4565b9150610ee283610af4565b9250828202610ef081610af4565b91508282048414831517610f0757610f06610c80565b5b509291505056fea26469706673582212205bbc5bd63bdef653a9a1a7d9bd072302fd975c594c73849a71e7d5196afcca3f64736f6c634300081c0033",
  "linkReferences": {},
  "deployedLinkReferences": {}
}