{
  "_format": "hh-sol-artifact-1",
  "contractName": "ETHStaking",
  "sourceName": "contracts/Staking.sol",
  "abi": [
    {
      "inputs": [],
      "stateMutability": "nonpayable",
      "type": "constructor"
    },
    {
      "inputs": [
        {
          "internalType": "address",
          "name": "owner",
          "type": "address"
        }
      ],
      "name": "OwnableInvalidOwner",
      "type": "error"
    },
    {
      "inputs": [
        {
          "internalType": "address",
          "name": "account",
          "type": "address"
        }
      ],
      "name": "OwnableUnauthorizedAccount",
      "type": "error"
    },
    {
      "anonymous": false,
      "inputs": [
        {
          "indexed": true,
          "internalType": "address",
          "name": "previousOwner",
          "type": "address"
        },
        {
          "indexed": true,
          "internalType": "address",
          "name": "newOwner",
          "type": "address"
        }
      ],
      "name": "OwnershipTransferred",
      "type": "event"
    },
    {
      "anonymous": false,
      "inputs": [
        {
          "indexed": true,
          "internalType": "address",
          "name": "user",
          "type": "address"
        },
        {
          "indexed": false,
          "internalType": "uint256",
          "name": "amount",
          "type": "uint256"
        },
        {
          "indexed": false,
          "internalType": "uint256",
          "name": "timestamp",
          "type": "uint256"
        }
      ],
      "name": "Staked",
      "type": "event"
    },
    {
      "anonymous": false,
      "inputs": [
        {
          "indexed": true,
          "internalType": "address",
          "name": "ownwe",
          "type": "address"
        },
        {
          "indexed": false,
          "internalType": "uint256",
          "name": "amount",
          "type": "uint256"
        },
        {
          "indexed": false,
          "internalType": "uint256",
          "name": "timestamp",
          "type": "uint256"
        }
      ],
      "name": "Withdrawn",
      "type": "event"
    },
    {
      "inputs": [
        {
          "internalType": "address",
          "name": "user",
          "type": "address"
        }
      ],
      "name": "calculateReward",
      "outputs": [
        {
          "internalType": "uint256",
          "name": "reward",
          "type": "uint256"
        },
        {
          "internalType": "uint256",
          "name": "total",
          "type": "uint256"
        }
      ],
      "stateMutability": "view",
      "type": "function"
    },
    {
      "inputs": [],
      "name": "getStakingInfo",
      "outputs": [
        {
          "components": [
            {
              "internalType": "uint256",
              "name": "stakedAmount",
              "type": "uint256"
            },
            {
              "internalType": "uint256",
              "name": "rewardAmount",
              "type": "uint256"
            },
            {
              "internalType": "uint256",
              "name": "totalAmount",
              "type": "uint256"
            }
          ],
          "internalType": "struct ETHStaking.StakeInfoDTO",
          "name": "",
          "type": "tuple"
        }
      ],
      "stateMutability": "view",
      "type": "function"
    },
    {
      "inputs": [],
      "name": "owner",
      "outputs": [
        {
          "internalType": "address",
          "name": "",
          "type": "address"
        }
      ],
      "stateMutability": "view",
      "type": "function"
    },
    {
      "inputs": [],
      "name": "renounceOwnership",
      "outputs": [],
      "stateMutability": "nonpayable",
      "type": "function"
    },
    {
      "inputs": [],
      "name": "stake",
      "outputs": [],
      "stateMutability": "payable",
      "type": "function"
    },
    {
      "inputs": [
        {
          "internalType": "address",
          "name": "",
          "type": "address"
        }
      ],
      "name": "stakes",
      "outputs": [
        {
          "internalType": "bool",
          "name": "exists",
          "type": "bool"
        },
        {
          "internalType": "uint256",
          "name": "amount",
          "type": "uint256"
        },
        {
          "internalType": "uint256",
          "name": "startTime",
          "type": "uint256"
        }
      ],
      "stateMutability": "view",
      "type": "function"
    },
    {
      "inputs": [
        {
          "internalType": "address",
          "name": "newOwner",
          "type": "address"
        }
      ],
      "name": "transferOwnership",
      "outputs": [],
      "stateMutability": "nonpayable",
      "type": "function"
    },
    {
      "inputs": [],
      "name": "withdraw",
      "outputs": [],
      "stateMutability": "nonpayable",
      "type": "function"
    }
  ],
  "bytecode": "0x608060405234801561001057600080fd5b5033600073ffffffffffffffffffffffffffffffffffffffff168173ffffffffffffffffffffffffffffffffffffffff16036100845760006040517f1e4fbdf700000000000000000000000000000000000000000000000000000000815260040161007b919061019e565b60405180910390fd5b6100938161009960201b60201c565b506101b9565b60008060009054906101000a900473ffffffffffffffffffffffffffffffffffffffff169050816000806101000a81548173ffffffffffffffffffffffffffffffffffffffff021916908373ffffffffffffffffffffffffffffffffffffffff1602179055508173ffffffffffffffffffffffffffffffffffffffff168173ffffffffffffffffffffffffffffffffffffffff167f8be0079c531659141344cd1fd0a4f28419497f9722a3daafe3b4186f6b6457e060405160405180910390a35050565b600073ffffffffffffffffffffffffffffffffffffffff82169050919050565b60006101888261015d565b9050919050565b6101988161017d565b82525050565b60006020820190506101b3600083018461018f565b92915050565b610bee806101c86000396000f3fe60806040526004361061007b5760003560e01c80638da5cb5b1161004e5780638da5cb5b146100f7578063b40cd21d14610122578063d82e39621461014d578063f2fde38b1461018b5761007b565b806316934fc4146100805780633a4b66f1146100bf5780633ccfd60b146100c9578063715018a6146100e0575b600080fd5b34801561008c57600080fd5b506100a760048036038101906100a291906108ab565b6101b4565b6040516100b69392919061090c565b60405180910390f35b6100c76101eb565b005b3480156100d557600080fd5b506100de61038d565b005b3480156100ec57600080fd5b506100f5610458565b005b34801561010357600080fd5b5061010c61046c565b6040516101199190610952565b60405180910390f35b34801561012e57600080fd5b50610137610495565b60405161014491906109be565b60405180910390f35b34801561015957600080fd5b50610174600480360381019061016f91906108ab565b610551565b6040516101829291906109d9565b60405180910390f35b34801561019757600080fd5b506101b260048036038101906101ad91906108ab565b61064e565b005b60016020528060005260406000206000915090508060000160009054906101000a900460ff16908060010154908060020154905083565b6000341161022e576040517f08c379a000000000000000000000000000000000000000000000000000000000815260040161022590610a5f565b60405180910390fd5b6000600160003373ffffffffffffffffffffffffffffffffffffffff1673ffffffffffffffffffffffffffffffffffffffff16815260200190815260200160002090508060000160009054906101000a900460ff16156102a5573481600101546102989190610aae565b816001018190555061033a565b604051806060016040528060011515815260200134815260200142815250600160003373ffffffffffffffffffffffffffffffffffffffff1673ffffffffffffffffffffffffffffffffffffffff16815260200190815260200160002060008201518160000160006101000a81548160ff02191690831515021790555060208201518160010155604082015181600201559050505b3373ffffffffffffffffffffffffffffffffffffffff167f1449c6dd7851abc30abf37f57715f492010519147cc2652fbc38202c18a6ee9034426040516103829291906109d9565b60405180910390a250565b6103956106d4565b600047905066b1a2bc2ec500008110156103af5750610456565b6103b761046c565b73ffffffffffffffffffffffffffffffffffffffff166108fc829081150290604051600060405180830381858888f193505050501580156103fc573d6000803e3d6000fd5b5061040561046c565b73ffffffffffffffffffffffffffffffffffffffff167f92ccf450a286a957af52509bc1c9939d1a6a481783e142e41e2499f0bb66ebc6824260405161044c9291906109d9565b60405180910390a2505b565b6104606106d4565b61046a600061075b565b565b60008060009054906101000a900473ffffffffffffffffffffffffffffffffffffffff16905090565b61049d610827565b6000806104a933610551565b915091506000600160003373ffffffffffffffffffffffffffffffffffffffff1673ffffffffffffffffffffffffffffffffffffffff1681526020019081526020016000206040518060600160405290816000820160009054906101000a900460ff1615151515815260200160018201548152602001600282015481525050905060405180606001604052808260200151815260200184815260200183815250935050505090565b6000806000600160008573ffffffffffffffffffffffffffffffffffffffff1673ffffffffffffffffffffffffffffffffffffffff1681526020019081526020016000206040518060600160405290816000820160009054906101000a900460ff1615151515815260200160018201548152602001600282015481525050905080600001516105e7576000809250925050610649565b6000620151808260400151426105fd9190610ae2565b6106079190610b45565b90506103e8600582846020015161061e9190610b76565b6106289190610b76565b6106329190610b45565b93508382602001516106449190610aae565b925050505b915091565b6106566106d4565b600073ffffffffffffffffffffffffffffffffffffffff168173ffffffffffffffffffffffffffffffffffffffff16036106c85760006040517f1e4fbdf70000000000000000000000000000000000000000000000000000000081526004016106bf9190610952565b60405180910390fd5b6106d18161075b565b50565b6106dc61081f565b73ffffffffffffffffffffffffffffffffffffffff166106fa61046c565b73ffffffffffffffffffffffffffffffffffffffff16146107595761071d61081f565b6040517f118cdaa70000000000000000000000000000000000000000000000000000000081526004016107509190610952565b60405180910390fd5b565b60008060009054906101000a900473ffffffffffffffffffffffffffffffffffffffff169050816000806101000a81548173ffffffffffffffffffffffffffffffffffffffff021916908373ffffffffffffffffffffffffffffffffffffffff1602179055508173ffffffffffffffffffffffffffffffffffffffff168173ffffffffffffffffffffffffffffffffffffffff167f8be0079c531659141344cd1fd0a4f28419497f9722a3daafe3b4186f6b6457e060405160405180910390a35050565b600033905090565b60405180606001604052806000815260200160008152602001600081525090565b600080fd5b600073ffffffffffffffffffffffffffffffffffffffff82169050919050565b60006108788261084d565b9050919050565b6108888161086d565b811461089357600080fd5b50565b6000813590506108a58161087f565b92915050565b6000602082840312156108c1576108c0610848565b5b60006108cf84828501610896565b91505092915050565b60008115159050919050565b6108ed816108d8565b82525050565b6000819050919050565b610906816108f3565b82525050565b600060608201905061092160008301866108e4565b61092e60208301856108fd565b61093b60408301846108fd565b949350505050565b61094c8161086d565b82525050565b60006020820190506109676000830184610943565b92915050565b610976816108f3565b82525050565b606082016000820151610992600085018261096d565b5060208201516109a5602085018261096d565b5060408201516109b8604085018261096d565b50505050565b60006060820190506109d3600083018461097c565b92915050565b60006040820190506109ee60008301856108fd565b6109fb60208301846108fd565b9392505050565b600082825260208201905092915050565b7f43616e6e6f74207374616b652030204554480000000000000000000000000000600082015250565b6000610a49601283610a02565b9150610a5482610a13565b602082019050919050565b60006020820190508181036000830152610a7881610a3c565b9050919050565b7f4e487b7100000000000000000000000000000000000000000000000000000000600052601160045260246000fd5b6000610ab9826108f3565b9150610ac4836108f3565b9250828201905080821115610adc57610adb610a7f565b5b92915050565b6000610aed826108f3565b9150610af8836108f3565b9250828203905081811115610b1057610b0f610a7f565b5b92915050565b7f4e487b7100000000000000000000000000000000000000000000000000000000600052601260045260246000fd5b6000610b50826108f3565b9150610b5b836108f3565b925082610b6b57610b6a610b16565b5b828204905092915050565b6000610b81826108f3565b9150610b8c836108f3565b9250828202610b9a816108f3565b91508282048414831517610bb157610bb0610a7f565b5b509291505056fea26469706673582212200ef05a40f27204ea006014cc012e7594bbf54aafad90a7ecd79999f9c9c9d63464736f6c634300081c0033",
  "linkReferences": {},
  "deployedLinkReferences": {}
}