{
  "_format": "hh-sol-artifact-1",
  "contractName": "ETHStaking",
  "sourceName": "contracts/Staking.sol",
  "abi": [
    {
      "inputs": [],
      "stateMutability": "nonpayable",
      "type": "constructor"
    },
    {
      "inputs": [
        {
          "internalType": "address",
          "name": "owner",
          "type": "address"
        }
      ],
      "name": "OwnableInvalidOwner",
      "type": "error"
    },
    {
      "inputs": [
        {
          "internalType": "address",
          "name": "account",
          "type": "address"
        }
      ],
      "name": "OwnableUnauthorizedAccount",
      "type": "error"
    },
    {
      "anonymous": false,
      "inputs": [
        {
          "indexed": true,
          "internalType": "address",
          "name": "previousOwner",
          "type": "address"
        },
        {
          "indexed": true,
          "internalType": "address",
          "name": "newOwner",
          "type": "address"
        }
      ],
      "name": "OwnershipTransferred",
      "type": "event"
    },
    {
      "anonymous": false,
      "inputs": [
        {
          "indexed": true,
          "internalType": "address",
          "name": "user",
          "type": "address"
        },
        {
          "indexed": false,
          "internalType": "uint256",
          "name": "amount",
          "type": "uint256"
        },
        {
          "indexed": false,
          "internalType": "uint256",
          "name": "timestamp",
          "type": "uint256"
        }
      ],
      "name": "Staked",
      "type": "event"
    },
    {
      "anonymous": false,
      "inputs": [
        {
          "indexed": true,
          "internalType": "address",
          "name": "user",
          "type": "address"
        },
        {
          "indexed": false,
          "internalType": "uint256",
          "name": "stakedAmount",
          "type": "uint256"
        },
        {
          "indexed": false,
          "internalType": "uint256",
          "name": "reward",
          "type": "uint256"
        },
        {
          "indexed": false,
          "internalType": "uint256",
          "name": "timestamp",
          "type": "uint256"
        }
      ],
      "name": "Withdrawn",
      "type": "event"
    },
    {
      "inputs": [
        {
          "internalType": "address",
          "name": "user",
          "type": "address"
        }
      ],
      "name": "calculateReward",
      "outputs": [
        {
          "internalType": "uint256",
          "name": "reward",
          "type": "uint256"
        },
        {
          "internalType": "uint256",
          "name": "total",
          "type": "uint256"
        }
      ],
      "stateMutability": "view",
      "type": "function"
    },
    {
      "inputs": [],
      "name": "getStakingInfo",
      "outputs": [
        {
          "components": [
            {
              "internalType": "uint256",
              "name": "stakedAmount",
              "type": "uint256"
            },
            {
              "internalType": "uint256",
              "name": "rewardAmount",
              "type": "uint256"
            },
            {
              "internalType": "uint256",
              "name": "totalAmount",
              "type": "uint256"
            }
          ],
          "internalType": "struct ETHStaking.StakeInfoDTO",
          "name": "",
          "type": "tuple"
        }
      ],
      "stateMutability": "view",
      "type": "function"
    },
    {
      "inputs": [],
      "name": "owner",
      "outputs": [
        {
          "internalType": "address",
          "name": "",
          "type": "address"
        }
      ],
      "stateMutability": "view",
      "type": "function"
    },
    {
      "inputs": [],
      "name": "renounceOwnership",
      "outputs": [],
      "stateMutability": "nonpayable",
      "type": "function"
    },
    {
      "inputs": [],
      "name": "rescueETH",
      "outputs": [],
      "stateMutability": "nonpayable",
      "type": "function"
    },
    {
      "inputs": [],
      "name": "stake",
      "outputs": [],
      "stateMutability": "payable",
      "type": "function"
    },
    {
      "inputs": [
        {
          "internalType": "address",
          "name": "",
          "type": "address"
        }
      ],
      "name": "stakes",
      "outputs": [
        {
          "internalType": "bool",
          "name": "exists",
          "type": "bool"
        },
        {
          "internalType": "uint256",
          "name": "amount",
          "type": "uint256"
        },
        {
          "internalType": "uint256",
          "name": "startTime",
          "type": "uint256"
        }
      ],
      "stateMutability": "view",
      "type": "function"
    },
    {
      "inputs": [
        {
          "internalType": "address",
          "name": "newOwner",
          "type": "address"
        }
      ],
      "name": "transferOwnership",
      "outputs": [],
      "stateMutability": "nonpayable",
      "type": "function"
    },
    {
      "inputs": [],
      "name": "withdraw",
      "outputs": [],
      "stateMutability": "nonpayable",
      "type": "function"
    }
  ],
  "bytecode": "0x608060405234801561001057600080fd5b5033600073ffffffffffffffffffffffffffffffffffffffff168173ffffffffffffffffffffffffffffffffffffffff16036100845760006040517f1e4fbdf700000000000000000000000000000000000000000000000000000000815260040161007b919061019e565b60405180910390fd5b6100938161009960201b60201c565b506101b9565b60008060009054906101000a900473ffffffffffffffffffffffffffffffffffffffff169050816000806101000a81548173ffffffffffffffffffffffffffffffffffffffff021916908373ffffffffffffffffffffffffffffffffffffffff1602179055508173ffffffffffffffffffffffffffffffffffffffff168173ffffffffffffffffffffffffffffffffffffffff167f8be0079c531659141344cd1fd0a4f28419497f9722a3daafe3b4186f6b6457e060405160405180910390a35050565b600073ffffffffffffffffffffffffffffffffffffffff82169050919050565b60006101888261015d565b9050919050565b6101988161017d565b82525050565b60006020820190506101b3600083018461018f565b92915050565b610f30806101c86000396000f3fe6080604052600436106100865760003560e01c8063715018a611610059578063715018a6146101025780638da5cb5b14610119578063b40cd21d14610144578063d82e39621461016f578063f2fde38b146101ad57610086565b806316934fc41461008b57806320800a00146100ca5780633a4b66f1146100e15780633ccfd60b146100eb575b600080fd5b34801561009757600080fd5b506100b260048036038101906100ad9190610a98565b6101d6565b6040516100c193929190610af9565b60405180910390f35b3480156100d657600080fd5b506100df61020d565b005b6100e9610265565b005b3480156100f757600080fd5b5061010061042d565b005b34801561010e57600080fd5b50610117610645565b005b34801561012557600080fd5b5061012e610659565b60405161013b9190610b3f565b60405180910390f35b34801561015057600080fd5b50610159610682565b6040516101669190610bab565b60405180910390f35b34801561017b57600080fd5b5061019660048036038101906101919190610a98565b61073e565b6040516101a4929190610bc6565b60405180910390f35b3480156101b957600080fd5b506101d460048036038101906101cf9190610a98565b61083b565b005b60016020528060005260406000206000915090508060000160009054906101000a900460ff16908060010154908060020154905083565b6102156108c1565b61021d610659565b73ffffffffffffffffffffffffffffffffffffffff166108fc479081150290604051600060405180830381858888f19350505050158015610262573d6000803e3d6000fd5b50565b600034116102a8576040517f08c379a000000000000000000000000000000000000000000000000000000000815260040161029f90610c4c565b60405180910390fd5b6000600160003373ffffffffffffffffffffffffffffffffffffffff1673ffffffffffffffffffffffffffffffffffffffff16815260200190815260200160002090508060000160009054906101000a900460ff161561034557600061030d3361073e565b509050803461031c9190610c9b565b82600101600082825461032f9190610c9b565b92505081905550428260020181905550506103da565b604051806060016040528060011515815260200134815260200142815250600160003373ffffffffffffffffffffffffffffffffffffffff1673ffffffffffffffffffffffffffffffffffffffff16815260200190815260200160002060008201518160000160006101000a81548160ff02191690831515021790555060208201518160010155604082015181600201559050505b3373ffffffffffffffffffffffffffffffffffffffff167f1449c6dd7851abc30abf37f57715f492010519147cc2652fbc38202c18a6ee903442604051610422929190610bc6565b60405180910390a250565b6000600160003373ffffffffffffffffffffffffffffffffffffffff1673ffffffffffffffffffffffffffffffffffffffff16815260200190815260200160002090508060000160009054906101000a900460ff166104c1576040517f08c379a00000000000000000000000000000000000000000000000000000000081526004016104b890610d1b565b60405180910390fd5b6000806104cd3361073e565b91509150600083600101549050600160003373ffffffffffffffffffffffffffffffffffffffff1673ffffffffffffffffffffffffffffffffffffffff168152602001908152602001600020600080820160006101000a81549060ff021916905560018201600090556002820160009055505060003373ffffffffffffffffffffffffffffffffffffffff168360405161056690610d6c565b60006040518083038185875af1925050503d80600081146105a3576040519150601f19603f3d011682016040523d82523d6000602084013e6105a8565b606091505b50509050806105ec576040517f08c379a00000000000000000000000000000000000000000000000000000000081526004016105e390610dcd565b60405180910390fd5b3373ffffffffffffffffffffffffffffffffffffffff167f75e161b3e824b114fc1a33274bd7091918dd4e639cede50b78b15a4eea956a2183864260405161063693929190610ded565b60405180910390a25050505050565b61064d6108c1565b6106576000610948565b565b60008060009054906101000a900473ffffffffffffffffffffffffffffffffffffffff16905090565b61068a610a14565b6000806106963361073e565b915091506000600160003373ffffffffffffffffffffffffffffffffffffffff1673ffffffffffffffffffffffffffffffffffffffff1681526020019081526020016000206040518060600160405290816000820160009054906101000a900460ff1615151515815260200160018201548152602001600282015481525050905060405180606001604052808260200151815260200184815260200183815250935050505090565b6000806000600160008573ffffffffffffffffffffffffffffffffffffffff1673ffffffffffffffffffffffffffffffffffffffff1681526020019081526020016000206040518060600160405290816000820160009054906101000a900460ff1615151515815260200160018201548152602001600282015481525050905080600001516107d4576000809250925050610836565b6000620151808260400151426107ea9190610e24565b6107f49190610e87565b90506103e8600582846020015161080b9190610eb8565b6108159190610eb8565b61081f9190610e87565b93508382602001516108319190610c9b565b925050505b915091565b6108436108c1565b600073ffffffffffffffffffffffffffffffffffffffff168173ffffffffffffffffffffffffffffffffffffffff16036108b55760006040517f1e4fbdf70000000000000000000000000000000000000000000000000000000081526004016108ac9190610b3f565b60405180910390fd5b6108be81610948565b50565b6108c9610a0c565b73ffffffffffffffffffffffffffffffffffffffff166108e7610659565b73ffffffffffffffffffffffffffffffffffffffff16146109465761090a610a0c565b6040517f118cdaa700000000000000000000000000000000000000000000000000000000815260040161093d9190610b3f565b60405180910390fd5b565b60008060009054906101000a900473ffffffffffffffffffffffffffffffffffffffff169050816000806101000a81548173ffffffffffffffffffffffffffffffffffffffff021916908373ffffffffffffffffffffffffffffffffffffffff1602179055508173ffffffffffffffffffffffffffffffffffffffff168173ffffffffffffffffffffffffffffffffffffffff167f8be0079c531659141344cd1fd0a4f28419497f9722a3daafe3b4186f6b6457e060405160405180910390a35050565b600033905090565b60405180606001604052806000815260200160008152602001600081525090565b600080fd5b600073ffffffffffffffffffffffffffffffffffffffff82169050919050565b6000610a6582610a3a565b9050919050565b610a7581610a5a565b8114610a8057600080fd5b50565b600081359050610a9281610a6c565b92915050565b600060208284031215610aae57610aad610a35565b5b6000610abc84828501610a83565b91505092915050565b60008115159050919050565b610ada81610ac5565b82525050565b6000819050919050565b610af381610ae0565b82525050565b6000606082019050610b0e6000830186610ad1565b610b1b6020830185610aea565b610b286040830184610aea565b949350505050565b610b3981610a5a565b82525050565b6000602082019050610b546000830184610b30565b92915050565b610b6381610ae0565b82525050565b606082016000820151610b7f6000850182610b5a565b506020820151610b926020850182610b5a565b506040820151610ba56040850182610b5a565b50505050565b6000606082019050610bc06000830184610b69565b92915050565b6000604082019050610bdb6000830185610aea565b610be86020830184610aea565b9392505050565b600082825260208201905092915050565b7f43616e6e6f74207374616b652030204554480000000000000000000000000000600082015250565b6000610c36601283610bef565b9150610c4182610c00565b602082019050919050565b60006020820190508181036000830152610c6581610c29565b9050919050565b7f4e487b7100000000000000000000000000000000000000000000000000000000600052601160045260246000fd5b6000610ca682610ae0565b9150610cb183610ae0565b9250828201905080821115610cc957610cc8610c6c565b5b92915050565b7f4e6f20616374697665207374616b650000000000000000000000000000000000600082015250565b6000610d05600f83610bef565b9150610d1082610ccf565b602082019050919050565b60006020820190508181036000830152610d3481610cf8565b9050919050565b600081905092915050565b50565b6000610d56600083610d3b565b9150610d6182610d46565b600082019050919050565b6000610d7782610d49565b9150819050919050565b7f455448207472616e73666572206661696c656400000000000000000000000000600082015250565b6000610db7601383610bef565b9150610dc282610d81565b602082019050919050565b60006020820190508181036000830152610de681610daa565b9050919050565b6000606082019050610e026000830186610aea565b610e0f6020830185610aea565b610e1c6040830184610aea565b949350505050565b6000610e2f82610ae0565b9150610e3a83610ae0565b9250828203905081811115610e5257610e51610c6c565b5b92915050565b7f4e487b7100000000000000000000000000000000000000000000000000000000600052601260045260246000fd5b6000610e9282610ae0565b9150610e9d83610ae0565b925082610ead57610eac610e58565b5b828204905092915050565b6000610ec382610ae0565b9150610ece83610ae0565b9250828202610edc81610ae0565b91508282048414831517610ef357610ef2610c6c565b5b509291505056fea2646970667358221220ab2682ecfdecd5b354507cdbee9b68246e3eabd5f27b516d8f69fb75d25011e164736f6c634300081c0033",
  "linkReferences": {},
  "deployedLinkReferences": {}
}