{
  "_format": "hh-sol-artifact-1",
  "contractName": "ETHStaking",
  "sourceName": "contracts/Staking.sol",
  "abi": [
    {
      "inputs": [],
      "stateMutability": "nonpayable",
      "type": "constructor"
    },
    {
      "inputs": [
        {
          "internalType": "address",
          "name": "owner",
          "type": "address"
        }
      ],
      "name": "OwnableInvalidOwner",
      "type": "error"
    },
    {
      "inputs": [
        {
          "internalType": "address",
          "name": "account",
          "type": "address"
        }
      ],
      "name": "OwnableUnauthorizedAccount",
      "type": "error"
    },
    {
      "anonymous": false,
      "inputs": [
        {
          "indexed": true,
          "internalType": "address",
          "name": "previousOwner",
          "type": "address"
        },
        {
          "indexed": true,
          "internalType": "address",
          "name": "newOwner",
          "type": "address"
        }
      ],
      "name": "OwnershipTransferred",
      "type": "event"
    },
    {
      "anonymous": false,
      "inputs": [
        {
          "indexed": true,
          "internalType": "address",
          "name": "user",
          "type": "address"
        },
        {
          "indexed": false,
          "internalType": "uint256",
          "name": "amount",
          "type": "uint256"
        },
        {
          "indexed": false,
          "internalType": "uint256",
          "name": "timestamp",
          "type": "uint256"
        }
      ],
      "name": "Staked",
      "type": "event"
    },
    {
      "anonymous": false,
      "inputs": [
        {
          "indexed": true,
          "internalType": "address",
          "name": "owner",
          "type": "address"
        },
        {
          "indexed": false,
          "internalType": "uint256",
          "name": "amount",
          "type": "uint256"
        },
        {
          "indexed": false,
          "internalType": "uint256",
          "name": "timestamp",
          "type": "uint256"
        }
      ],
      "name": "Withdrawn",
      "type": "event"
    },
    {
      "inputs": [
        {
          "internalType": "address",
          "name": "user",
          "type": "address"
        }
      ],
      "name": "calculateReward",
      "outputs": [
        {
          "internalType": "uint256",
          "name": "reward",
          "type": "uint256"
        },
        {
          "internalType": "uint256",
          "name": "total",
          "type": "uint256"
        }
      ],
      "stateMutability": "view",
      "type": "function"
    },
    {
      "inputs": [],
      "name": "getStakingInfo",
      "outputs": [
        {
          "components": [
            {
              "internalType": "uint256",
              "name": "stakedAmount",
              "type": "uint256"
            },
            {
              "internalType": "uint256",
              "name": "rewardAmount",
              "type": "uint256"
            },
            {
              "internalType": "uint256",
              "name": "totalAmount",
              "type": "uint256"
            }
          ],
          "internalType": "struct ETHStaking.StakeInfoDTO",
          "name": "",
          "type": "tuple"
        }
      ],
      "stateMutability": "view",
      "type": "function"
    },
    {
      "inputs": [],
      "name": "owner",
      "outputs": [
        {
          "internalType": "address",
          "name": "",
          "type": "address"
        }
      ],
      "stateMutability": "view",
      "type": "function"
    },
    {
      "inputs": [],
      "name": "renounceOwnership",
      "outputs": [],
      "stateMutability": "nonpayable",
      "type": "function"
    },
    {
      "inputs": [],
      "name": "stake",
      "outputs": [],
      "stateMutability": "payable",
      "type": "function"
    },
    {
      "inputs": [
        {
          "internalType": "address",
          "name": "",
          "type": "address"
        }
      ],
      "name": "stakes",
      "outputs": [
        {
          "internalType": "uint256",
          "name": "amount",
          "type": "uint256"
        },
        {
          "internalType": "uint256",
          "name": "startTime",
          "type": "uint256"
        }
      ],
      "stateMutability": "view",
      "type": "function"
    },
    {
      "inputs": [
        {
          "internalType": "address",
          "name": "newOwner",
          "type": "address"
        }
      ],
      "name": "transferOwnership",
      "outputs": [],
      "stateMutability": "nonpayable",
      "type": "function"
    },
    {
      "inputs": [],
      "name": "withdraw",
      "outputs": [],
      "stateMutability": "nonpayable",
      "type": "function"
    }
  ],
  "bytecode": "0x608060405234801561001057600080fd5b5033600073ffffffffffffffffffffffffffffffffffffffff168173ffffffffffffffffffffffffffffffffffffffff16036100845760006040517f1e4fbdf700000000000000000000000000000000000000000000000000000000815260040161007b919061019e565b60405180910390fd5b6100938161009960201b60201c565b506101b9565b60008060009054906101000a900473ffffffffffffffffffffffffffffffffffffffff169050816000806101000a81548173ffffffffffffffffffffffffffffffffffffffff021916908373ffffffffffffffffffffffffffffffffffffffff1602179055508173ffffffffffffffffffffffffffffffffffffffff168173ffffffffffffffffffffffffffffffffffffffff167f8be0079c531659141344cd1fd0a4f28419497f9722a3daafe3b4186f6b6457e060405160405180910390a35050565b600073ffffffffffffffffffffffffffffffffffffffff82169050919050565b60006101888261015d565b9050919050565b6101988161017d565b82525050565b60006020820190506101b3600083018461018f565b92915050565b610bee806101c86000396000f3fe60806040526004361061007b5760003560e01c80638da5cb5b1161004e5780638da5cb5b146100f6578063b40cd21d14610121578063d82e39621461014c578063f2fde38b1461018a5761007b565b806316934fc4146100805780633a4b66f1146100be5780633ccfd60b146100c8578063715018a6146100df575b600080fd5b34801561008c57600080fd5b506100a760048036038101906100a29190610891565b6101b3565b6040516100b59291906108d7565b60405180910390f35b6100c66101d7565b005b3480156100d457600080fd5b506100dd610346565b005b3480156100eb57600080fd5b506100f461043e565b005b34801561010257600080fd5b5061010b610452565b604051610118919061090f565b60405180910390f35b34801561012d57600080fd5b5061013661047b565b604051610143919061097b565b60405180910390f35b34801561015857600080fd5b50610173600480360381019061016e9190610891565b61054f565b6040516101819291906108d7565b60405180910390f35b34801561019657600080fd5b506101b160048036038101906101ac9190610891565b610634565b005b60016020528060005260406000206000915090508060000154908060010154905082565b6000341161021a576040517f08c379a0000000000000000000000000000000000000000000000000000000008152600401610211906109f3565b60405180910390fd5b6000600160003373ffffffffffffffffffffffffffffffffffffffff1673ffffffffffffffffffffffffffffffffffffffff16815260200190815260200160002090506000816000015411156102875734816000015461027a9190610a42565b81600001819055506102f3565b604051806040016040528034815260200142815250600160003373ffffffffffffffffffffffffffffffffffffffff1673ffffffffffffffffffffffffffffffffffffffff16815260200190815260200160002060008201518160000155602082015181600101559050505b3373ffffffffffffffffffffffffffffffffffffffff167f1449c6dd7851abc30abf37f57715f492010519147cc2652fbc38202c18a6ee90344260405161033b9291906108d7565b60405180910390a250565b61034e6106ba565b600047905060008111610396576040517f08c379a000000000000000000000000000000000000000000000000000000000815260040161038d90610ac2565b60405180910390fd5b61039e610452565b73ffffffffffffffffffffffffffffffffffffffff166108fc829081150290604051600060405180830381858888f193505050501580156103e3573d6000803e3d6000fd5b506103ec610452565b73ffffffffffffffffffffffffffffffffffffffff167f92ccf450a286a957af52509bc1c9939d1a6a481783e142e41e2499f0bb66ebc682426040516104339291906108d7565b60405180910390a250565b6104466106ba565b6104506000610741565b565b60008060009054906101000a900473ffffffffffffffffffffffffffffffffffffffff16905090565b61048361080d565b6000600160003373ffffffffffffffffffffffffffffffffffffffff1673ffffffffffffffffffffffffffffffffffffffff16815260200190815260200160002060405180604001604052908160008201548152602001600182015481525050905060008160000151036105175760405180606001604052806000815260200160008152602001600081525091505061054c565b6000806105233361054f565b915091506040518060600160405280846000015181526020018381526020018281525093505050505b90565b6000806000600160008573ffffffffffffffffffffffffffffffffffffffff1673ffffffffffffffffffffffffffffffffffffffff16815260200190815260200160002060405180604001604052908160008201548152602001600182015481525050905060008160000151036105cd57600080925092505061062f565b6000620151808260200151426105e39190610ae2565b6105ed9190610b45565b90506103e860058284600001516106049190610b76565b61060e9190610b76565b6106189190610b45565b935083826000015161062a9190610a42565b925050505b915091565b61063c6106ba565b600073ffffffffffffffffffffffffffffffffffffffff168173ffffffffffffffffffffffffffffffffffffffff16036106ae5760006040517f1e4fbdf70000000000000000000000000000000000000000000000000000000081526004016106a5919061090f565b60405180910390fd5b6106b781610741565b50565b6106c2610805565b73ffffffffffffffffffffffffffffffffffffffff166106e0610452565b73ffffffffffffffffffffffffffffffffffffffff161461073f57610703610805565b6040517f118cdaa7000000000000000000000000000000000000000000000000000000008152600401610736919061090f565b60405180910390fd5b565b60008060009054906101000a900473ffffffffffffffffffffffffffffffffffffffff169050816000806101000a81548173ffffffffffffffffffffffffffffffffffffffff021916908373ffffffffffffffffffffffffffffffffffffffff1602179055508173ffffffffffffffffffffffffffffffffffffffff168173ffffffffffffffffffffffffffffffffffffffff167f8be0079c531659141344cd1fd0a4f28419497f9722a3daafe3b4186f6b6457e060405160405180910390a35050565b600033905090565b60405180606001604052806000815260200160008152602001600081525090565b600080fd5b600073ffffffffffffffffffffffffffffffffffffffff82169050919050565b600061085e82610833565b9050919050565b61086e81610853565b811461087957600080fd5b50565b60008135905061088b81610865565b92915050565b6000602082840312156108a7576108a661082e565b5b60006108b58482850161087c565b91505092915050565b6000819050919050565b6108d1816108be565b82525050565b60006040820190506108ec60008301856108c8565b6108f960208301846108c8565b9392505050565b61090981610853565b82525050565b60006020820190506109246000830184610900565b92915050565b610933816108be565b82525050565b60608201600082015161094f600085018261092a565b506020820151610962602085018261092a565b506040820151610975604085018261092a565b50505050565b60006060820190506109906000830184610939565b92915050565b600082825260208201905092915050565b7f43616e6e6f74207374616b652030204554480000000000000000000000000000600082015250565b60006109dd601283610996565b91506109e8826109a7565b602082019050919050565b60006020820190508181036000830152610a0c816109d0565b9050919050565b7f4e487b7100000000000000000000000000000000000000000000000000000000600052601160045260246000fd5b6000610a4d826108be565b9150610a58836108be565b9250828201905080821115610a7057610a6f610a13565b5b92915050565b7f4e6f2045544820746f2077697468647261770000000000000000000000000000600082015250565b6000610aac601283610996565b9150610ab782610a76565b602082019050919050565b60006020820190508181036000830152610adb81610a9f565b9050919050565b6000610aed826108be565b9150610af8836108be565b9250828203905081811115610b1057610b0f610a13565b5b92915050565b7f4e487b7100000000000000000000000000000000000000000000000000000000600052601260045260246000fd5b6000610b50826108be565b9150610b5b836108be565b925082610b6b57610b6a610b16565b5b828204905092915050565b6000610b81826108be565b9150610b8c836108be565b9250828202610b9a816108be565b91508282048414831517610bb157610bb0610a13565b5b509291505056fea264697066735822122086c3fb73ab939f3a5e3fa6ab86e4824a78476ad7e5221f3376404bcf986a16f564736f6c634300081c0033",
  "linkReferences": {},
  "deployedLinkReferences": {}
}