{
  "_format": "hh-sol-artifact-1",
  "contractName": "Transfer",
  "sourceName": "contracts/Transfer.sol",
  "abi": [
    {
      "inputs": [],
      "stateMutability": "nonpayable",
      "type": "constructor"
    },
    {
      "inputs": [
        {
          "internalType": "address",
          "name": "owner",
          "type": "address"
        }
      ],
      "name": "OwnableInvalidOwner",
      "type": "error"
    },
    {
      "inputs": [
        {
          "internalType": "address",
          "name": "account",
          "type": "address"
        }
      ],
      "name": "OwnableUnauthorizedAccount",
      "type": "error"
    },
    {
      "anonymous": false,
      "inputs": [
        {
          "indexed": true,
          "internalType": "address",
          "name": "previousOwner",
          "type": "address"
        },
        {
          "indexed": true,
          "internalType": "address",
          "name": "newOwner",
          "type": "address"
        }
      ],
      "name": "OwnershipTransferred",
      "type": "event"
    },
    {
      "anonymous": false,
      "inputs": [
        {
          "indexed": true,
          "internalType": "address",
          "name": "token",
          "type": "address"
        },
        {
          "indexed": true,
          "internalType": "address",
          "name": "from",
          "type": "address"
        },
        {
          "indexed": true,
          "internalType": "address",
          "name": "to",
          "type": "address"
        }
      ],
      "name": "ZeroTransferEvent",
      "type": "event"
    },
    {
      "inputs": [],
      "name": "owner",
      "outputs": [
        {
          "internalType": "address",
          "name": "",
          "type": "address"
        }
      ],
      "stateMutability": "view",
      "type": "function"
    },
    {
      "inputs": [],
      "name": "renounceOwnership",
      "outputs": [],
      "stateMutability": "nonpayable",
      "type": "function"
    },
    {
      "inputs": [
        {
          "internalType": "address",
          "name": "newOwner",
          "type": "address"
        }
      ],
      "name": "transferOwnership",
      "outputs": [],
      "stateMutability": "nonpayable",
      "type": "function"
    },
    {
      "inputs": [
        {
          "internalType": "address",
          "name": "token",
          "type": "address"
        },
        {
          "internalType": "address",
          "name": "from",
          "type": "address"
        },
        {
          "internalType": "address",
          "name": "to",
          "type": "address"
        }
      ],
      "name": "transferZero",
      "outputs": [],
      "stateMutability": "nonpayable",
      "type": "function"
    }
  ],
  "bytecode": "0x608060405234801561001057600080fd5b5033600073ffffffffffffffffffffffffffffffffffffffff168173ffffffffffffffffffffffffffffffffffffffff16036100845760006040517f1e4fbdf700000000000000000000000000000000000000000000000000000000815260040161007b919061019e565b60405180910390fd5b6100938161009960201b60201c565b506101b9565b60008060009054906101000a900473ffffffffffffffffffffffffffffffffffffffff169050816000806101000a81548173ffffffffffffffffffffffffffffffffffffffff021916908373ffffffffffffffffffffffffffffffffffffffff1602179055508173ffffffffffffffffffffffffffffffffffffffff168173ffffffffffffffffffffffffffffffffffffffff167f8be0079c531659141344cd1fd0a4f28419497f9722a3daafe3b4186f6b6457e060405160405180910390a35050565b600073ffffffffffffffffffffffffffffffffffffffff82169050919050565b60006101888261015d565b9050919050565b6101988161017d565b82525050565b60006020820190506101b3600083018461018f565b92915050565b6105f5806101c86000396000f3fe608060405234801561001057600080fd5b506004361061004c5760003560e01c8063715018a6146100515780638da5cb5b1461005b5780639cc77cb014610079578063f2fde38b14610095575b600080fd5b6100596100b1565b005b6100636100c5565b6040516100709190610408565b60405180910390f35b610093600480360381019061008e9190610454565b6100ee565b005b6100af60048036038101906100aa91906104a7565b6101ee565b005b6100b9610274565b6100c360006102fb565b565b60008060009054906101000a900473ffffffffffffffffffffffffffffffffffffffff16905090565b6100f6610274565b8273ffffffffffffffffffffffffffffffffffffffff166323b872dd838360006040518463ffffffff1660e01b815260040161013493929190610523565b6020604051808303816000875af1158015610153573d6000803e3d6000fd5b505050506040513d601f19601f820116820180604052508101906101779190610592565b508073ffffffffffffffffffffffffffffffffffffffff168273ffffffffffffffffffffffffffffffffffffffff168473ffffffffffffffffffffffffffffffffffffffff167fd1a7cef8b35f2e5623e93bb73fab560f180fd58830575395bae09abc7b984b4a60405160405180910390a4505050565b6101f6610274565b600073ffffffffffffffffffffffffffffffffffffffff168173ffffffffffffffffffffffffffffffffffffffff16036102685760006040517f1e4fbdf700000000000000000000000000000000000000000000000000000000815260040161025f9190610408565b60405180910390fd5b610271816102fb565b50565b61027c6103bf565b73ffffffffffffffffffffffffffffffffffffffff1661029a6100c5565b73ffffffffffffffffffffffffffffffffffffffff16146102f9576102bd6103bf565b6040517f118cdaa70000000000000000000000000000000000000000000000000000000081526004016102f09190610408565b60405180910390fd5b565b60008060009054906101000a900473ffffffffffffffffffffffffffffffffffffffff169050816000806101000a81548173ffffffffffffffffffffffffffffffffffffffff021916908373ffffffffffffffffffffffffffffffffffffffff1602179055508173ffffffffffffffffffffffffffffffffffffffff168173ffffffffffffffffffffffffffffffffffffffff167f8be0079c531659141344cd1fd0a4f28419497f9722a3daafe3b4186f6b6457e060405160405180910390a35050565b600033905090565b600073ffffffffffffffffffffffffffffffffffffffff82169050919050565b60006103f2826103c7565b9050919050565b610402816103e7565b82525050565b600060208201905061041d60008301846103f9565b92915050565b600080fd5b610431816103e7565b811461043c57600080fd5b50565b60008135905061044e81610428565b92915050565b60008060006060848603121561046d5761046c610423565b5b600061047b8682870161043f565b935050602061048c8682870161043f565b925050604061049d8682870161043f565b9150509250925092565b6000602082840312156104bd576104bc610423565b5b60006104cb8482850161043f565b91505092915050565b6000819050919050565b6000819050919050565b6000819050919050565b600061050d610508610503846104d4565b6104e8565b6104de565b9050919050565b61051d816104f2565b82525050565b600060608201905061053860008301866103f9565b61054560208301856103f9565b6105526040830184610514565b949350505050565b60008115159050919050565b61056f8161055a565b811461057a57600080fd5b50565b60008151905061058c81610566565b92915050565b6000602082840312156105a8576105a7610423565b5b60006105b68482850161057d565b9150509291505056fea2646970667358221220648a1476399315d02ae7ed72595e0ae18aee543cff07d861553f8a495996644f64736f6c634300081c0033",
  "linkReferences": {},
  "deployedLinkReferences": {}
}